:04000000AEEF03F06C
:1000080000C019F001C018F002C017F003C016F0C4
:1000180004C015F09EA606D082B003D0C9CF28F040
:1000280010DA9E9619C000F018C001F017C002F04F
:0A00380016C003F015C004F011001B
:0C0042003A0E0D6E0D2EFED700001200CD
:10004E000B6A0A6A096A086A0E6A03340836045093
:10005E00085E0550D8A0053C095E0650D8A0063CA7
:10006E000A5E0750D8A0073C0B5EE86AD8A0010EC6
:10007E000E5E0336070E0C6E0334083609360A364A
:10008E000B360E36045003A012D0085E0550D8A0D1
:10009E00053C095E0650D8A0063C0A5E0750D8A063
:1000AE00073C0B5EE86AD8A0010E0E5E11D0082642
:1000BE000550D8B0053C09260650D8B0063C0A2695
:1000CE000750D8B0073C0B26E86AD8B0010E0E26B2
:1000DE0003360C2ED1D70234083609360A360B36C3
:1000EE000E36045003A012D0085E0550D8A0053C71
:1000FE00095E0650D8A0063C0A5E0750D8A0073C01
:10010E000B5EE86AD8A0010E0E5E11D008260550CF
:10011E00D8B0053C09260650D8B0063C0A26075032
:10012E00D8B0073C0B26E86AD8B0010E0E26023670
:10013E00070E0C6E0234083609360A360B360E36AA
:10014E00045002A012D0085E0550D8A0053C095EEE
:10015E000650D8A0063C0A5E0750D8A0073C0B5E9E
:10016E00E86AD8A0010E0E5E11D008260550D8B050
:10017E00053C09260650D8B0063C0A260750D8B0D2
:10018E00073C0B26E86AD8B0010E0E2602360C2E5E
:10019E00D1D70134083609360A360B360E360450DE
:1001AE0002A012D0085E0550D8A0053C095E06508C
:1001BE00D8A0063C0A5E0750D8A0073C0B5EE86A42
:1001CE00D8A0010E0E5E11D008260550D8B0053C01
:1001DE0009260650D8B0063C0A260750D8B0073C70
:1001EE000B26E86AD8B0010E0E260136070E0C6EED
:1001FE000134083609360A360B360E36045001A085
:10020E0012D0085E0550D8A0053C095E0650D8A055
:10021E00063C0A5E0750D8A0073C0B5EE86AD8A0E1
:10022E00010E0E5E11D008260550D8B0053C0926E9
:10023E000650D8B0063C0A260750D8B0073C0B260D
:10024E00E86AD8B0010E0E2601360C2ED1D7003436
:10025E00083609360A360B360E36045001A012D077
:10026E00085E0550D8A0053C095E0650D8A0063C95
:10027E000A5E0750D8A0073C0B5EE86AD8A0010EB4
:10028E000E5E11D008260550D8B0053C0926065042
:10029E00D8B0063C0A260750D8B0073C0B26E86AB1
:1002AE00D8B0010E0E260036070E0C6E003408363E
:1002BE0009360A360B360E36045000A012D0085EF0
:1002CE000550D8A0053C095E0650D8A0063C0A5E33
:1002DE000750D8A0073C0B5EE86AD8A0010E0E5E50
:1002EE0011D008260550D8B0053C09260650D8B0C6
:1002FE00063C0A260750D8B0073C0B26E86AD8B051
:10030E00010E0E2600360C2ED1D700B00ED00450A2
:10031E0008260550D8B0053C09260650D8B0063C34
:0C032E000A260750D8B0073C0B2612002E
:10033A00220E0C6E086A096A0A6A0B6A0C06D8B49D
:10034A001FD0D8900B320A320932083203320232F5
:10035A0001320032D8A0F2D70C06D8B409D0045022
:10036A0008260550092206500A2207500B22EAD70E
:10037A00045008260550092206500A2207500B226B
:02038A0012005F
:10038C00086A096A100E0C6E0134083609360450DE
:10039C00085E0550D8A0053C095ED8B007D00450C3
:1003AC0008260550D8B0053C0926D89000360136F1
:0603BC000C2EEAD712002E
:1003C200C30EC2163BC000F000360090003600900B
:1003D2000050C21235DEC282C2A202D00000FCD797
:1003E200C4CF01F0006A00C03CF001C03DF0C35030
:1003F2003C12000E3D123CC000F03DC001F0120064
:100402003A063A063A50000806E23A0600000000B0
:1004120000000000F7D7000000000000000000000C
:080422000000000000001200C0
:10042A00000E046E7D0E056E000E066E076E04C089
:10043A0000F005C001F006C002F007C003F0120088
:10044A001D50000A10E128500B0A02E10A0E1D6E27
:10045A0028500D0A02E1140E1D6E28500A0A02E104
:10046A001E0E1D6E3DD01D500A0A07E128C08AFFE4
:10047A00C96A010E276E1D6A33D01D50140A07E19E
:10048A0028C08CFFC96A010E276E1D6A29D01D502B
:10049A001E0A25E1000E285C000ED8B0FF0E016E80
:1004AA0028500408000ED8B0FF0E006E0150001646
:1004BA0012E028C03BF080DF00C002F001C003F068
:1004CA0003320232039E03320232039E02C0C9FF84
:1004DA00010E276E02D0010EC96E1D6A01D01D6A77
:0204EA001200FE
:1004EC00C20E296E030E2A6E3B0E2B6E000E2C6E66
:0C04FC00C26A070EC012C08EC28012003F
:100508002DC01AF02EC01BF02FC001F0010E006E96
:10051800015004E000360090FF0FFBD700C01CF02C
:10052800001E00C01EF0120E2D24E96E000E2E20B3
:10053800EA6E0050EF16120EE95E0050EF16120038
:1005480070DFE80E046E030E056E000E066E076E71
:10055800F0DE00C035F001C036F002C037F003C04D
:1005680038F02DC004F02EC005F0000E066E076EA0
:100578006ADD00C035F001C036F002C037F003C0B4
:1005880038F000C005F001C006F002C007F003C053
:1005980008F00832073206320532089E0832073260
:1005A80006320532089E05C000F006C001F007C0FB
:1005B80002F008C003F00332023201320032039E17
:1005C80000C031F001C032F02CDF2FC004F030C081
:1005D80005F0000E066E076EACDE31C009F032C0C1
:1005E8000AF0000E0B6E0C6E030E086E09C004F0C4
:1005F8000AC005F00BC006F00CC007F0085007E071
:1006080004360490053606360736FF0FF8D71BDD8B
:1006180000C035F001C036F002C037F003C038F032
:100628000A0E046E000E056E31C000F032C001F0F3
:10063800A9DE00C031F001C032F0000E015C02E119
:10064800030E005C01E257D01AC0E9FF1BC0EAFFA5
:100658003850000808E13750000805E13650000816
:1006680002E13550000845E21C50EF123250000AF2
:1006780017E0336A346A3204396E000E006E345063
:10068800005C02E13350395C0BE33A6AB6DE000ED7
:10069800341802E13950331803E0334A342AEBD7CF
:1006A80031C03AF0AADE1E50EF163250000A17E0A9
:1006B800336A346A3204396E000E006E3450005CBE
:1006C80002E13350395C0BE33A6A97DE000E3418C6
:1006D80002E13950331803E0334A342AEBD731C0EA
:1006E8003AF08BDE010E355E000E365A375A385A0C
:0806F800AFD71E50EF161200EF
:10070000C69AFF0E1F6EFF0E206EFF0E216EFF0EAB
:10071000226EFF0E236EFF0E246EFF0E256EFF0E5F
:10072000266E949A2D50040A02E1948601D0949684
:100730009488C66A2D50C6122F50C6122E50C7126A
:100740002F50000A05E03050000AD8B4C78C04D0FE
:0C0750003050000AD8A4C78CC68A1200E2
:10075C002F0E0F01386F396B3A6B3B6B606AC0DE42
:10076C00FF0E926E936A956A9480820E2D6E0F0E18
:10077C002E6E020E2F6EC2DE276A050E2D6E2E6AAD
:10078C002F6A010E306EB6DF9486D09E9D86F28E57
:10079C00F28C27520AE0D00E2D6E070E2E6E320E02
:0E07AC002F6E000E306ECADE276AF3D7FFD71D
:020000040030CA
:0D000100331F3CFFBF81FF0FC00FE00F4019
:00000001FF
